{
  "contractName": "CertificateManager",
  "abi": [
    {
      "inputs": [],
      "stateMutability": "nonpayable",
      "type": "constructor"
    },
    {
      "anonymous": false,
      "inputs": [
        {
          "indexed": true,
          "internalType": "bytes16",
          "name": "uuid",
          "type": "bytes16"
        },
        {
          "indexed": false,
          "internalType": "address",
          "name": "creator",
          "type": "address"
        }
      ],
      "name": "CertificateCreated",
      "type": "event"
    },
    {
      "anonymous": false,
      "inputs": [
        {
          "indexed": true,
          "internalType": "bytes16",
          "name": "uuid",
          "type": "bytes16"
        },
        {
          "indexed": false,
          "internalType": "address",
          "name": "signer",
          "type": "address"
        }
      ],
      "name": "CertificateSigned",
      "type": "event"
    },
    {
      "anonymous": false,
      "inputs": [
        {
          "indexed": true,
          "internalType": "bytes16",
          "name": "uuid",
          "type": "bytes16"
        }
      ],
      "name": "CertificateVerified",
      "type": "event"
    },
    {
      "anonymous": false,
      "inputs": [
        {
          "indexed": true,
          "internalType": "address",
          "name": "previousOwner",
          "type": "address"
        },
        {
          "indexed": true,
          "internalType": "address",
          "name": "newOwner",
          "type": "address"
        }
      ],
      "name": "OwnershipTransferred",
      "type": "event"
    },
    {
      "inputs": [
        {
          "internalType": "uint256",
          "name": "",
          "type": "uint256"
        }
      ],
      "name": "certificateIds",
      "outputs": [
        {
          "internalType": "bytes16",
          "name": "",
          "type": "bytes16"
        }
      ],
      "stateMutability": "view",
      "type": "function"
    },
    {
      "inputs": [
        {
          "internalType": "bytes16",
          "name": "",
          "type": "bytes16"
        }
      ],
      "name": "certificates",
      "outputs": [
        {
          "internalType": "bytes16",
          "name": "uuid",
          "type": "bytes16"
        },
        {
          "internalType": "string",
          "name": "data",
          "type": "string"
        },
        {
          "internalType": "uint8",
          "name": "status",
          "type": "uint8"
        },
        {
          "internalType": "uint8",
          "name": "signs",
          "type": "uint8"
        },
        {
          "internalType": "address",
          "name": "creator",
          "type": "address"
        }
      ],
      "stateMutability": "view",
      "type": "function"
    },
    {
      "inputs": [],
      "name": "minimumSigners",
      "outputs": [
        {
          "internalType": "uint8",
          "name": "",
          "type": "uint8"
        }
      ],
      "stateMutability": "view",
      "type": "function"
    },
    {
      "inputs": [],
      "name": "owner",
      "outputs": [
        {
          "internalType": "address",
          "name": "",
          "type": "address"
        }
      ],
      "stateMutability": "view",
      "type": "function"
    },
    {
      "inputs": [],
      "name": "signersCount",
      "outputs": [
        {
          "internalType": "uint8",
          "name": "",
          "type": "uint8"
        }
      ],
      "stateMutability": "view",
      "type": "function"
    },
    {
      "inputs": [
        {
          "internalType": "uint256",
          "name": "",
          "type": "uint256"
        }
      ],
      "name": "signersList",
      "outputs": [
        {
          "internalType": "address",
          "name": "",
          "type": "address"
        }
      ],
      "stateMutability": "view",
      "type": "function"
    },
    {
      "inputs": [
        {
          "internalType": "address",
          "name": "newOwner",
          "type": "address"
        }
      ],
      "name": "changeOwner",
      "outputs": [],
      "stateMutability": "nonpayable",
      "type": "function"
    },
    {
      "inputs": [
        {
          "internalType": "uint8",
          "name": "_minimumSigners",
          "type": "uint8"
        }
      ],
      "name": "setMinimumSigners",
      "outputs": [],
      "stateMutability": "nonpayable",
      "type": "function"
    },
    {
      "inputs": [
        {
          "internalType": "address",
          "name": "_signer",
          "type": "address"
        }
      ],
      "name": "addSigner",
      "outputs": [],
      "stateMutability": "nonpayable",
      "type": "function"
    },
    {
      "inputs": [
        {
          "internalType": "string",
          "name": "_data",
          "type": "string"
        }
      ],
      "name": "createCertificate",
      "outputs": [
        {
          "internalType": "bytes16",
          "name": "",
          "type": "bytes16"
        }
      ],
      "stateMutability": "nonpayable",
      "type": "function"
    },
    {
      "inputs": [
        {
          "internalType": "bytes16",
          "name": "_uuid",
          "type": "bytes16"
        }
      ],
      "name": "signCertificate",
      "outputs": [],
      "stateMutability": "nonpayable",
      "type": "function"
    },
    {
      "inputs": [],
      "name": "getUnsignedCertificates",
      "outputs": [
        {
          "internalType": "bytes16[]",
          "name": "",
          "type": "bytes16[]"
        }
      ],
      "stateMutability": "view",
      "type": "function"
    },
    {
      "inputs": [
        {
          "internalType": "bytes16",
          "name": "_uuid",
          "type": "bytes16"
        }
      ],
      "name": "getCertificate",
      "outputs": [
        {
          "internalType": "bytes16",
          "name": "",
          "type": "bytes16"
        },
        {
          "internalType": "string",
          "name": "",
          "type": "string"
        },
        {
          "internalType": "uint8",
          "name": "",
          "type": "uint8"
        },
        {
          "internalType": "uint8",
          "name": "",
          "type": "uint8"
        },
        {
          "internalType": "address",
          "name": "",
          "type": "address"
        }
      ],
      "stateMutability": "view",
      "type": "function"
    }
  ],
  "bytecode": "0x608060405234801561000f575f80fd5b50335f806101000a81548173ffffffffffffffffffffffffffffffffffffffff021916908373ffffffffffffffffffffffffffffffffffffffff16021790555060015f60146101000a81548160ff021916908360ff160217905550612426806100775f395ff3fe608060405234801561000f575f80fd5b50600436106100cd575f3560e01c80638da5cb5b1161008a578063ddb8121c11610064578063ddb8121c14610229578063e40956b114610247578063eb12d61e14610265578063ec40ade614610281576100cd565b80638da5cb5b146101d3578063a6f9dae1146101f1578063aa0ac0e71461020d576100cd565b806305b5cbfa146100d15780630f9c774d14610105578063154236f31461013557806353079f77146101535780636e6f458c1461018757806374444882146101a3575b5f80fd5b6100eb60048036038101906100e69190611553565b6102b1565b6040516100fc959493929190611671565b60405180910390f35b61011f600480360381019061011a91906116fc565b6103ae565b60405161012c9190611727565b60405180910390f35b61013d6103e2565b60405161014a9190611740565b60405180910390f35b61016d60048036038101906101689190611553565b6103f4565b60405161017e959493929190611671565b60405180910390f35b6101a1600480360381019061019c9190611783565b6105a8565b005b6101bd60048036038101906101b891906118da565b6106a7565b6040516101ca9190611727565b60405180910390f35b6101db61096e565b6040516101e89190611921565b60405180910390f35b61020b60048036038101906102069190611964565b610991565b005b61022760048036038101906102229190611553565b610b47565b005b610231610fe6565b60405161023e9190611a46565b60405180910390f35b61024f611251565b60405161025c9190611740565b60405180910390f35b61027f600480360381019061027a9190611964565b611263565b005b61029b600480360381019061029691906116fc565b6114b9565b6040516102a89190611921565b60405180910390f35b6007602052805f5260405f205f91509050805f015f9054906101000a900460801b908060010180546102e290611a93565b80601f016020809104026020016040519081016040528092919081815260200182805461030e90611a93565b80156103595780601f1061033057610100808354040283529160200191610359565b820191905f5260205f20905b81548152906001019060200180831161033c57829003601f168201915b505050505090806002015f9054906101000a900460ff16908060020160019054906101000a900460ff16908060020160029054906101000a900473ffffffffffffffffffffffffffffffffffffffff16905085565b600881815481106103bd575f80fd5b905f5260205f209060029182820401919006601002915054906101000a900460801b81565b5f60149054906101000a900460ff1681565b5f60605f805f8060075f886fffffffffffffffffffffffffffffffff19166fffffffffffffffffffffffffffffffff191681526020019081526020015f2090505f60801b6fffffffffffffffffffffffffffffffff1916815f015f9054906101000a900460801b6fffffffffffffffffffffffffffffffff1916036104ae576040517f08c379a00000000000000000000000000000000000000000000000000000000081526004016104a590611b0d565b60405180910390fd5b805f015f9054906101000a900460801b81600101826002015f9054906101000a900460ff168360020160019054906101000a900460ff168460020160029054906101000a900473ffffffffffffffffffffffffffffffffffffffff1683805461051690611a93565b80601f016020809104026020016040519081016040528092919081815260200182805461054290611a93565b801561058d5780601f106105645761010080835404028352916020019161058d565b820191905f5260205f20905b81548152906001019060200180831161057057829003601f168201915b50505050509350955095509550955095505091939590929450565b5f8054906101000a900473ffffffffffffffffffffffffffffffffffffffff1673ffffffffffffffffffffffffffffffffffffffff163373ffffffffffffffffffffffffffffffffffffffff1614610635576040517f08c379a000000000000000000000000000000000000000000000000000000000815260040161062c90611b9b565b60405180910390fd5b5f8160ff1611801561064b575060058160ff1611155b61068a576040517f08c379a000000000000000000000000000000000000000000000000000000000815260040161068190611c03565b60405180910390fd5b805f60146101000a81548160ff021916908360ff16021790555050565b5f805f90505f5b60065f9054906101000a900460ff1660ff168160ff161015610750573373ffffffffffffffffffffffffffffffffffffffff1660018260ff16600581106106f8576106f7611c21565b5b015f9054906101000a900473ffffffffffffffffffffffffffffffffffffffff1673ffffffffffffffffffffffffffffffffffffffff160361073d5760019150610750565b808061074890611c7b565b9150506106ae565b5080610791576040517f08c379a000000000000000000000000000000000000000000000000000000000815260040161078890611d13565b60405180910390fd5b5f4233856040516020016107a793929190611dd0565b6040516020818303038152906040528051906020012090505f60075f836fffffffffffffffffffffffffffffffff19166fffffffffffffffffffffffffffffffff191681526020019081526020015f20905081815f015f6101000a8154816fffffffffffffffffffffffffffffffff021916908360801c0217905550848160010190816108349190611fa5565b505f600281111561084857610847612074565b5b816002015f6101000a81548160ff021916908360ff1602179055505f8160020160016101000a81548160ff021916908360ff160217905550338160020160026101000a81548173ffffffffffffffffffffffffffffffffffffffff021916908373ffffffffffffffffffffffffffffffffffffffff160217905550600882908060018154018082558091505060019003905f5260205f2090600291828204019190066010029091909190916101000a8154816fffffffffffffffffffffffffffffffff021916908360801c0217905550816fffffffffffffffffffffffffffffffff19167f013f9619500e40066d3386f665456c86a45b4cf23046dc43880ca58827cfbf2a3360405161095b9190611921565b60405180910390a2819350505050919050565b5f8054906101000a900473ffffffffffffffffffffffffffffffffffffffff1681565b5f8054906101000a900473ffffffffffffffffffffffffffffffffffffffff1673ffffffffffffffffffffffffffffffffffffffff163373ffffffffffffffffffffffffffffffffffffffff1614610a1e576040517f08c379a0000000000000000000000000000000000000000000000000000000008152600401610a1590611b9b565b60405180910390fd5b5f73ffffffffffffffffffffffffffffffffffffffff168173ffffffffffffffffffffffffffffffffffffffff1603610a8c576040517f08c379a0000000000000000000000000000000000000000000000000000000008152600401610a8390612111565b60405180910390fd5b8073ffffffffffffffffffffffffffffffffffffffff165f8054906101000a900473ffffffffffffffffffffffffffffffffffffffff1673ffffffffffffffffffffffffffffffffffffffff167f8be0079c531659141344cd1fd0a4f28419497f9722a3daafe3b4186f6b6457e060405160405180910390a3805f806101000a81548173ffffffffffffffffffffffffffffffffffffffff021916908373ffffffffffffffffffffffffffffffffffffffff16021790555050565b5f805b60065f9054906101000a900460ff1660ff168160ff161015610bec573373ffffffffffffffffffffffffffffffffffffffff1660018260ff1660058110610b9457610b93611c21565b5b015f9054906101000a900473ffffffffffffffffffffffffffffffffffffffff1673ffffffffffffffffffffffffffffffffffffffff1603610bd95760019150610bec565b8080610be490611c7b565b915050610b4a565b5080610c2d576040517f08c379a0000000000000000000000000000000000000000000000000000000008152600401610c2490611d13565b60405180910390fd5b5f60075f846fffffffffffffffffffffffffffffffff19166fffffffffffffffffffffffffffffffff191681526020019081526020015f2090505f60801b6fffffffffffffffffffffffffffffffff1916815f015f9054906101000a900460801b6fffffffffffffffffffffffffffffffff191603610ce1576040517f08c379a0000000000000000000000000000000000000000000000000000000008152600401610cd890611b0d565b60405180910390fd5b5f6002811115610cf457610cf3612074565b5b60ff16816002015f9054906101000a900460ff1660ff1614610d4b576040517f08c379a0000000000000000000000000000000000000000000000000000000008152600401610d429061219f565b60405180910390fd5b3373ffffffffffffffffffffffffffffffffffffffff168160020160029054906101000a900473ffffffffffffffffffffffffffffffffffffffff1673ffffffffffffffffffffffffffffffffffffffff1603610ddd576040517f08c379a0000000000000000000000000000000000000000000000000000000008152600401610dd490612207565b60405180910390fd5b806003015f3373ffffffffffffffffffffffffffffffffffffffff1673ffffffffffffffffffffffffffffffffffffffff1681526020019081526020015f205f9054906101000a900460ff1615610e69576040517f08c379a0000000000000000000000000000000000000000000000000000000008152600401610e6090612295565b60405180910390fd5b6001816003015f3373ffffffffffffffffffffffffffffffffffffffff1673ffffffffffffffffffffffffffffffffffffffff1681526020019081526020015f205f6101000a81548160ff02191690831515021790555080600201600181819054906101000a900460ff1680929190610ee190611c7b565b91906101000a81548160ff021916908360ff16021790555050826fffffffffffffffffffffffffffffffff19167fbbe3a05d2d2c9f77d7d73a96c3187af2c540e9d6231ba2cae57dab0723741f5c33604051610f3d9190611921565b60405180910390a25f60149054906101000a900460ff1660ff168160020160019054906101000a900460ff1660ff1610610fe15760016002811115610f8557610f84612074565b5b816002015f6101000a81548160ff021916908360ff160217905550826fffffffffffffffffffffffffffffffff19167f29624e99bb1ef73c2812bf0b8f3ad984f54f87c908b2c92309445f869395830560405160405180910390a25b505050565b60605f805b6008805490508110156110b3575f600281111561100b5761100a612074565b5b60ff1660075f6008848154811061102557611024611c21565b5b905f5260205f2090600291828204019190066010029054906101000a900460801b6fffffffffffffffffffffffffffffffff19166fffffffffffffffffffffffffffffffff191681526020019081526020015f206002015f9054906101000a900460ff1660ff16036110a057818061109c906122b3565b9250505b80806110ab906122b3565b915050610feb565b505f8167ffffffffffffffff8111156110cf576110ce6117b6565b5b6040519080825280602002602001820160405280156110fd5781602001602082028036833780820191505090505b5090505f805b600880549050811015611247575f600281111561112357611122612074565b5b60ff1660075f6008848154811061113d5761113c611c21565b5b905f5260205f2090600291828204019190066010029054906101000a900460801b6fffffffffffffffffffffffffffffffff19166fffffffffffffffffffffffffffffffff191681526020019081526020015f206002015f9054906101000a900460ff1660ff160361123457600881815481106111bd576111bc611c21565b5b905f5260205f2090600291828204019190066010029054906101000a900460801b8383815181106111f1576111f0611c21565b5b60200260200101906fffffffffffffffffffffffffffffffff191690816fffffffffffffffffffffffffffffffff1916815250508180611230906122b3565b9250505b808061123f906122b3565b915050611103565b5081935050505090565b60065f9054906101000a900460ff1681565b5f8054906101000a900473ffffffffffffffffffffffffffffffffffffffff1673ffffffffffffffffffffffffffffffffffffffff163373ffffffffffffffffffffffffffffffffffffffff16146112f0576040517f08c379a00000000000000000000000000000000000000000000000000000000081526004016112e790611b9b565b60405180910390fd5b600560065f9054906101000a900460ff1660ff1610611344576040517f08c379a000000000000000000000000000000000000000000000000000000000815260040161133b9061236a565b60405180910390fd5b5f5b60065f9054906101000a900460ff1660ff168160ff16101561141a578173ffffffffffffffffffffffffffffffffffffffff1660018260ff16600581106113905761138f611c21565b5b015f9054906101000a900473ffffffffffffffffffffffffffffffffffffffff1673ffffffffffffffffffffffffffffffffffffffff1603611407576040517f08c379a00000000000000000000000000000000000000000000000000000000081526004016113fe906123d2565b60405180910390fd5b808061141290611c7b565b915050611346565b5080600160065f9054906101000a900460ff1660ff166005811061144157611440611c21565b5b015f6101000a81548173ffffffffffffffffffffffffffffffffffffffff021916908373ffffffffffffffffffffffffffffffffffffffff16021790555060065f81819054906101000a900460ff168092919061149d90611c7b565b91906101000a81548160ff021916908360ff1602179055505050565b600181600581106114c8575f80fd5b015f915054906101000a900473ffffffffffffffffffffffffffffffffffffffff1681565b5f604051905090565b5f80fd5b5f80fd5b5f7fffffffffffffffffffffffffffffffff0000000000000000000000000000000082169050919050565b611532816114fe565b811461153c575f80fd5b50565b5f8135905061154d81611529565b92915050565b5f60208284031215611568576115676114f6565b5b5f6115758482850161153f565b91505092915050565b611587816114fe565b82525050565b5f81519050919050565b5f82825260208201905092915050565b5f5b838110156115c45780820151818401526020810190506115a9565b5f8484015250505050565b5f601f19601f8301169050919050565b5f6115e98261158d565b6115f38185611597565b93506116038185602086016115a7565b61160c816115cf565b840191505092915050565b5f60ff82169050919050565b61162c81611617565b82525050565b5f73ffffffffffffffffffffffffffffffffffffffff82169050919050565b5f61165b82611632565b9050919050565b61166b81611651565b82525050565b5f60a0820190506116845f83018861157e565b818103602083015261169681876115df565b90506116a56040830186611623565b6116b26060830185611623565b6116bf6080830184611662565b9695505050505050565b5f819050919050565b6116db816116c9565b81146116e5575f80fd5b50565b5f813590506116f6816116d2565b92915050565b5f60208284031215611711576117106114f6565b5b5f61171e848285016116e8565b91505092915050565b5f60208201905061173a5f83018461157e565b92915050565b5f6020820190506117535f830184611623565b92915050565b61176281611617565b811461176c575f80fd5b50565b5f8135905061177d81611759565b92915050565b5f60208284031215611798576117976114f6565b5b5f6117a58482850161176f565b91505092915050565b5f80fd5b5f80fd5b7f4e487b71000000000000000000000000000000000000000000000000000000005f52604160045260245ffd5b6117ec826115cf565b810181811067ffffffffffffffff8211171561180b5761180a6117b6565b5b80604052505050565b5f61181d6114ed565b905061182982826117e3565b919050565b5f67ffffffffffffffff821115611848576118476117b6565b5b611851826115cf565b9050602081019050919050565b828183375f83830152505050565b5f61187e6118798461182e565b611814565b90508281526020810184848401111561189a576118996117b2565b5b6118a584828561185e565b509392505050565b5f82601f8301126118c1576118c06117ae565b5b81356118d184826020860161186c565b91505092915050565b5f602082840312156118ef576118ee6114f6565b5b5f82013567ffffffffffffffff81111561190c5761190b6114fa565b5b611918848285016118ad565b91505092915050565b5f6020820190506119345f830184611662565b92915050565b61194381611651565b811461194d575f80fd5b50565b5f8135905061195e8161193a565b92915050565b5f60208284031215611979576119786114f6565b5b5f61198684828501611950565b91505092915050565b5f81519050919050565b5f82825260208201905092915050565b5f819050602082019050919050565b6119c1816114fe565b82525050565b5f6119d283836119b8565b60208301905092915050565b5f602082019050919050565b5f6119f48261198f565b6119fe8185611999565b9350611a09836119a9565b805f5b83811015611a39578151611a2088826119c7565b9750611a2b836119de565b925050600181019050611a0c565b5085935050505092915050565b5f6020820190508181035f830152611a5e81846119ea565b905092915050565b7f4e487b71000000000000000000000000000000000000000000000000000000005f52602260045260245ffd5b5f6002820490506001821680611aaa57607f821691505b602082108103611abd57611abc611a66565b5b50919050565b7f436572746966696361746520646f6573206e6f742065786973740000000000005f82015250565b5f611af7601a83611597565b9150611b0282611ac3565b602082019050919050565b5f6020820190508181035f830152611b2481611aeb565b9050919050565b7f4f6e6c79206f776e65722063616e2063616c6c20746869732066756e6374696f5f8201527f6e00000000000000000000000000000000000000000000000000000000000000602082015250565b5f611b85602183611597565b9150611b9082611b2b565b604082019050919050565b5f6020820190508181035f830152611bb281611b79565b9050919050565b7f496e76616c6964206d696e696d756d207369676e65727320636f756e740000005f82015250565b5f611bed601d83611597565b9150611bf882611bb9565b602082019050919050565b5f6020820190508181035f830152611c1a81611be1565b9050919050565b7f4e487b71000000000000000000000000000000000000000000000000000000005f52603260045260245ffd5b7f4e487b71000000000000000000000000000000000000000000000000000000005f52601160045260245ffd5b5f611c8582611617565b915060ff8203611c9857611c97611c4e565b5b600182019050919050565b7f4f6e6c79207369676e6572732063616e2063616c6c20746869732066756e63745f8201527f696f6e0000000000000000000000000000000000000000000000000000000000602082015250565b5f611cfd602383611597565b9150611d0882611ca3565b604082019050919050565b5f6020820190508181035f830152611d2a81611cf1565b9050919050565b5f819050919050565b611d4b611d46826116c9565b611d31565b82525050565b5f8160601b9050919050565b5f611d6782611d51565b9050919050565b5f611d7882611d5d565b9050919050565b611d90611d8b82611651565b611d6e565b82525050565b5f81905092915050565b5f611daa8261158d565b611db48185611d96565b9350611dc48185602086016115a7565b80840191505092915050565b5f611ddb8286611d3a565b602082019150611deb8285611d7f565b601482019150611dfb8284611da0565b9150819050949350505050565b5f819050815f5260205f209050919050565b5f6020601f8301049050919050565b5f82821b905092915050565b5f60088302611e647fffffffffffffffffffffffffffffffffffffffffffffffffffffffffffffffff82611e29565b611e6e8683611e29565b95508019841693508086168417925050509392505050565b5f819050919050565b5f611ea9611ea4611e9f846116c9565b611e86565b6116c9565b9050919050565b5f819050919050565b611ec283611e8f565b611ed6611ece82611eb0565b848454611e35565b825550505050565b5f90565b611eea611ede565b611ef5818484611eb9565b505050565b5b81811015611f1857611f0d5f82611ee2565b600181019050611efb565b5050565b601f821115611f5d57611f2e81611e08565b611f3784611e1a565b81016020851015611f46578190505b611f5a611f5285611e1a565b830182611efa565b50505b505050565b5f82821c905092915050565b5f611f7d5f1984600802611f62565b1980831691505092915050565b5f611f958383611f6e565b9150826002028217905092915050565b611fae8261158d565b67ffffffffffffffff811115611fc757611fc66117b6565b5b611fd18254611a93565b611fdc828285611f1c565b5f60209050601f83116001811461200d575f8415611ffb578287015190505b6120058582611f8a565b86555061206c565b601f19841661201b86611e08565b5f5b828110156120425784890151825560018201915060208501945060208101905061201d565b8683101561205f578489015161205b601f891682611f6e565b8355505b6001600288020188555050505b505050505050565b7f4e487b71000000000000000000000000000000000000000000000000000000005f52602160045260245ffd5b7f4e6577206f776e65722063616e6e6f7420626520746865207a65726f206164645f8201527f7265737300000000000000000000000000000000000000000000000000000000602082015250565b5f6120fb602483611597565b9150612106826120a1565b604082019050919050565b5f6020820190508181035f830152612128816120ef565b9050919050565b7f4365727469666963617465206973206e6f7420696e20756e76657269666965645f8201527f2073746174650000000000000000000000000000000000000000000000000000602082015250565b5f612189602683611597565b91506121948261212f565b604082019050919050565b5f6020820190508181035f8301526121b68161217d565b9050919050565b7f43657274696669636174652063726561746f722063616e6e6f74207369676e005f82015250565b5f6121f1601f83611597565b91506121fc826121bd565b602082019050919050565b5f6020820190508181035f83015261221e816121e5565b9050919050565b7f5369676e65722068617320616c7265616479207369676e6564207468697320635f8201527f6572746966696361746500000000000000000000000000000000000000000000602082015250565b5f61227f602a83611597565b915061228a82612225565b604082019050919050565b5f6020820190508181035f8301526122ac81612273565b9050919050565b5f6122bd826116c9565b91507fffffffffffffffffffffffffffffffffffffffffffffffffffffffffffffffff82036122ef576122ee611c4e565b5b600182019050919050565b7f4d6178696d756d206e756d626572206f66207369676e657273207265616368655f8201527f6400000000000000000000000000000000000000000000000000000000000000602082015250565b5f612354602183611597565b915061235f826122fa565b604082019050919050565b5f6020820190508181035f83015261238181612348565b9050919050565b7f5369676e657220616c72656164792065786973747300000000000000000000005f82015250565b5f6123bc601583611597565b91506123c782612388565b602082019050919050565b5f6020820190508181035f8301526123e9816123b0565b905091905056fea2646970667358221220652934dc8431ebc6576ef512c08ea4f2ac1ca395db6bfc5709a43e71359d708c64736f6c63430008150033",
  "immutableReferences": {},
  "source": "pragma solidity ^0.8.0;\n\ncontract CertificateManager {\n    // Struct to represent a certificate\n    struct Certificate {\n        bytes16 uuid;\n        string data;\n        uint8 status;\n        uint8 signs;\n        address creator;\n        mapping(address => bool) signers;\n    }\n\n    // Enum for certificate status\n    enum Status { Unverified, Verified, Revoked }\n\n    // State variables\n    address public owner;\n    uint8 public minimumSigners;\n    address[5] public signersList;\n    uint8 public signersCount;\n    mapping(bytes16 => Certificate) public certificates;\n    bytes16[] public certificateIds;\n\n    // Events\n    event OwnershipTransferred(address indexed previousOwner, address indexed newOwner);\n    event CertificateCreated(bytes16 indexed uuid, address creator);\n    event CertificateSigned(bytes16 indexed uuid, address signer);\n    event CertificateVerified(bytes16 indexed uuid);\n\n    // Constructor\n    constructor() {\n        owner = msg.sender;\n        minimumSigners = 1;\n    }\n\n    // Modifiers\n    modifier onlyOwner() {\n        require(msg.sender == owner, \"Only owner can call this function\");\n        _;\n    }\n\n    modifier onlySigner() {\n        bool isSigner = false;\n        for (uint8 i = 0; i < signersCount; i++) {\n            if (signersList[i] == msg.sender) {\n                isSigner = true;\n                break;\n            }\n        }\n        require(isSigner, \"Only signers can call this function\");\n        _;\n    }\n\n    // Functions\n    function changeOwner(address newOwner) public onlyOwner {\n        require(newOwner != address(0), \"New owner cannot be the zero address\");\n        emit OwnershipTransferred(owner, newOwner);\n        owner = newOwner;\n    }\n\n    function setMinimumSigners(uint8 _minimumSigners) public onlyOwner {\n        require(_minimumSigners > 0 && _minimumSigners <= 5, \"Invalid minimum signers count\");\n        minimumSigners = _minimumSigners;\n    }\n\n    function addSigner(address _signer) public onlyOwner {\n        require(signersCount < 5, \"Maximum number of signers reached\");\n        for (uint8 i = 0; i < signersCount; i++) {\n            require(signersList[i] != _signer, \"Signer already exists\");\n        }\n        signersList[signersCount] = _signer;\n        signersCount++;\n    }\n\n    function createCertificate(string memory _data) public onlySigner returns (bytes16) {\n        bytes16 uuid = bytes16(keccak256(abi.encodePacked(block.timestamp, msg.sender, _data)));\n        Certificate storage newCertificate = certificates[uuid];\n        newCertificate.uuid = uuid;\n        newCertificate.data = _data;\n        newCertificate.status = uint8(Status.Unverified);\n        newCertificate.signs = 0;\n        newCertificate.creator = msg.sender;\n        certificateIds.push(uuid);\n        emit CertificateCreated(uuid, msg.sender);\n        return uuid;\n    }\n\n    function signCertificate(bytes16 _uuid) public onlySigner {\n        Certificate storage cert = certificates[_uuid];\n        require(cert.uuid != bytes16(0), \"Certificate does not exist\");\n        require(cert.status == uint8(Status.Unverified), \"Certificate is not in unverified state\");\n        require(cert.creator != msg.sender, \"Certificate creator cannot sign\");\n        require(!cert.signers[msg.sender], \"Signer has already signed this certificate\");\n\n        cert.signers[msg.sender] = true;\n        cert.signs++;\n        emit CertificateSigned(_uuid, msg.sender);\n\n        if (cert.signs >= minimumSigners) {\n            cert.status = uint8(Status.Verified);\n            emit CertificateVerified(_uuid);\n        }\n    }\n\n    function getUnsignedCertificates() public view returns (bytes16[] memory) {\n        uint256 count = 0;\n        for (uint256 i = 0; i < certificateIds.length; i++) {\n            if (certificates[certificateIds[i]].status == uint8(Status.Unverified)) {\n                count++;\n            }\n        }\n\n        bytes16[] memory unsignedCertificates = new bytes16[](count);\n        uint256 index = 0;\n        for (uint256 i = 0; i < certificateIds.length; i++) {\n            if (certificates[certificateIds[i]].status == uint8(Status.Unverified)) {\n                unsignedCertificates[index] = certificateIds[i];\n                index++;\n            }\n        }\n\n        return unsignedCertificates;\n    }\n\n    function getCertificate(bytes16 _uuid) public view returns (bytes16, string memory, uint8, uint8, address) {\n        Certificate storage cert = certificates[_uuid];\n        require(cert.uuid != bytes16(0), \"Certificate does not exist\");\n        return (cert.uuid, cert.data, cert.status, cert.signs, cert.creator);\n    }\n}",
  "sourcePath": "/home/luxeave/personal-projects/cert-contract/contracts/Certificate.sol",
  "compiler": {
    "name": "solc",
    "version": "0.8.21+commit.d9974bed.Emscripten.clang"
  },
  "schemaVersion": "3.4.16",
  "updatedAt": "2024-06-25T16:07:34.237Z",
  "devdoc": {
    "kind": "dev",
    "methods": {},
    "version": 1
  },
  "userdoc": {
    "kind": "user",
    "methods": {},
    "version": 1
  }
}